:020000040800F2
:1000000060130120A10100080B6700080D620008C1
:100010000967000885250008E56E0008000000005B
:100020000000000000000000000000001B6B000842
:10003000D944000800000000196B00081D6B00087F
:10004000BB010008BB010008BB010008BB010008A0
:10005000BB010008BB010008DB440008BB0100082D
:10006000BB010008BB010008BB010008BB01000880
:10007000BB010008BB010008A1430008BB01000848
:10008000BB010008BB010008BB010008BB01000860
:10009000BB010008BB010008BB010008BB01000850
:1000A000BB010008BB010008BB010008BB01000840
:1000B000BB010008BB010008BB010008BB01000830
:1000C000BB010008BB010008BB010008BB01000820
:1000D000BB010008D96E0008BB010008BB01000885
:1000E000BB010008BB010008BB010008BB01000800
:1000F000BB010008BB010008BB010008AD430008BC
:10010000BB010008BB010008BB010008BB010008DF
:10011000BB010008BB010008BB010008BB010008CF
:10012000BB010008BB010008B9430008BB0100087F
:10013000BB010008BB010008BB010008BB010008AF
:10014000BB010008BB010008BB010008BB0100089F
:10015000BB010008BB010008BB010008BB0100088F
:10016000BB010008BB010008BB010008BB0100087F
:10017000BB010008BB010008BB0100080000000033
:10018000BB010008BB010008DFF80CD000F01CFB2D
:10019000004800474D8B00086013012040BA7047AB
:1001A0000648804706480047FEE7FEE7FEE7FEE711
:1001B000FEE7FEE7FEE7FEE7FEE7FEE7CD6B0008A1
:1001C000890100082DE9F05F0546002092469B4614
:1001D00088460646814640241BE02846414647465D
:1001E000224600F041F953465A46C01A914110D3B5
:1001F00011461846224600F028F92D1A67EB01082F
:100200004F4622460120002100F01FF917EB00099C
:100210004E41201EA4F10104DFDC484631462A4647
:100220004346BDE8F09F40EA01039B0703D009E085
:1002300008C9121F08C0042AFAD203E011F8013BD2
:1002400000F8013B521EF9D27047D2B201E000F82B
:10025000012B491EFBD270470022F6E710B513466A
:100260000A4604461946FFF7F0FF204610BD421C1F
:1002700010F8011B0029FBD1801A70472DE9FE4FB1
:10028000804681EA0300C00F0C46009021F0004137
:1002900023F00045B8EB0200A94105D240462146B3
:1002A00090461C460B46024623F00040104347D0C0
:1002B000270DC7F30A00C3F30A510290401A0190B8
:1002C00040286BDAC3F3130040F4801B0098924679
:1002D00020B10023D2EB030A63EB0B0B01985946C4
:1002E000C0F14002504600F0B0F806460D465046B8
:1002F0005946019A00F0C8F810EB0800614100244B
:1003000087EA115284EAE7731A4340D0009A62B335
:10031000019A012A4FEA075215DC001B61EB02012A
:100320004FF0004202EA0752CDE90042001C41F5BD
:10033000801132462B4600F0E6F803B0BDE8F08F9E
:1003400040462146F9E7001B61EB0201001C41F524
:10035000801300185B412018A2F5001747EB03013A
:1003600040EAD570B6196D4111E06D084FEA3606C6
:1003700045EAC0754FEA0752001B61EB0201001C01
:1003800041F5801149084FEA3000001951413246C9
:100390002B4603B0BDE8F04F00F0A6B8009801224C
:1003A00040000023D0EB020263EBE073009821468B
:1003B0004FEAE074B8EB000061EB0401E9E783F079
:1003C00000435BE781F0004158E70EB5C10F80EABA
:1003D000E0700844CA07002140F233438DE80E0064
:1003E0000A460B4600F08FF803B000BDC1F30A5275
:1003F00010B5C1F3130140F2FF3341F480119A426A
:1004000001DA002010BD40F233439A42A2F2334297
:1004100003DC524200F028F810BD904010BD30B50A
:100420000B46014600202022012409E021FA02F5B2
:100430009D4205D303FA02F5491B04FA02F528444C
:10044000151EA2F10102F1DC30BD202A04DB203AA6
:1004500000FA02F1002070479140C2F1200320FA17
:1004600003F3194390407047202A04DB203A21FA15
:1004700002F00021704721FA02F3D040C2F12002BD
:100480009140084319467047202A06DBCB17203AD3
:1004900041FA02F043EAE07306E041FA02F3D04089
:1004A000C2F12002914008431946704710B541003F
:1004B0000CD0C0F3C751962908DC7E2909DC06DB85
:1004C000410204D000F0004040F07E5010BD0020FA
:1004D00010BDC1F19604C4F1200100FA01F1E04021
:1004E00000F084F9A04010BD10B5141E73F1000493
:1004F00008DA401C41F1000192185B411A4301D116
:1005000020F0010010BD2DE9F04D92469B4611B13F
:10051000B1FA81F202E0B0FA80F220329046FFF7A1
:1005200094FF04460F4640EA0A0041EA0B01534695
:100530005A46084313D0114653EA010019D0C8F1B6
:1005400040025046FFF790FF05460E46504659467A
:100550004246FFF77AFF084305D0012004E0204619
:100560003946BDE8F08D0020054346EAE0762C438D
:1005700037430A986305E40AA0EB08000022FD0A4D
:1005800044EA47540A3002D500200146E9E7010554
:1005900010196941DDE9084500196941BDE8F04DD0
:1005A000A2E72DE9FE4F81EA030404F0004421F0A4
:1005B000004100944FF0000B23F0004350EA010487
:1005C0005ED052EA03045BD0C3F30A54C1F30A5568
:1005D0002C44A4F2F3340194A0FB0254C1F31301A0
:1005E00041F48011C3F3130343F4801301FB02446D
:1005F00000FB034E840A970A44EA815447EA835772
:10060000A4FB076802958D0A05FB07854FEA932C2A
:1006100004FB0C542705029D4FEA065847EA16379B
:10062000B5EB08056EEB070C870E920E47EA8117B3
:1006300042EA8312A7FB0201B6EB0B0164EB000454
:100640002B0D43EA0C335E1844EB1C50DA4651463E
:10065000E7FB0201C5F313044FEA0B3343EA1453DB
:100660004FEA0432019C43EA0603A4F10C0402940D
:10067000009CCDE900B4FFF746FF03B0BDE8F08F62
:1006800000200146F9E72DE9F04D81EA030404F06A
:10069000004B21F0004514464FF0000A23F00041C2
:1006A00050EA050220D054EA01021DD0C5F30A57D2
:1006B0000246C5F31303C1F31300C1F30A5640F415
:1006C000801543F48013A7EB0608101BD64608F2EA
:1006D000FD3873EB050002D308F1010801E0921820
:1006E0005B41B8F1000F03DA00200146BDE8F08D50
:1006F00000204FF48011064684460EE0171B73EB72
:10070000050705D3121B63EB050306434CEA010CF6
:1007100049084FEA300092185B4150EA0107EDD1D9
:1007200052EA030012D082EA040083EA050108437A
:1007300005D0101BAB4106D20122002306E00022A7
:100740004FF0004302E06FF0010253101AEB060075
:100750004CEB085110EB0A0041EB0B01BDE8F04DEA
:10076000FFF7C2BEC1F30A52C1F3130140F2FF33D7
:1007700041F480119A4202DA00200146704740F2AB
:1007800033439A42A2F2334202DC5242FFF76CBE7C
:10079000FFF75BBE30B5041E71F1000404DB4FF0BF
:1007A0000044404264EB0101141E73F1000405DBB8
:1007B0001C464FF00043524263EB0403994208BFCA
:1007C000904230BD00207047064C074D06E0E068BF
:1007D00040F0010394E8070098471034AC42F6D388
:1007E000FFF7D6FCD4F90208F4F902080029A8BFE3
:1007F0007047401C490008BF20F00100704710B44A
:10080000B0FA80FC00FA0CF050EA010404BF10BCFE
:10081000704749B1CCF1200421FA04F411FA0CF12B
:1008200018BF012121430843A3EB0C01CB1D4FEA64
:1008300000614FEA102042BF002010BC704700EB5F
:10084000C35010440029A4BF10BC7047401C49008D
:1008500008BF20F0010010BC704770B58D1810F86B
:10086000014B14F0030201D110F8012B231106D122
:1008700010F8013B03E010F8016B01F8016B521E08
:10088000F9D1ABB110F8012B04F00C048A1A0C2C2E
:1008900003D0A2EB84129B1C08E010F8014BA2EBE2
:1008A0000422F8E712F8014B01F8014B5B1EF9D561
:1008B000A942D4D3002070BD80B50023B3EB920FC2
:1008C00022D0930890ED000A00F1100CB0EEC00A9F
:1008D00081ED000A90ED010A01F1100EB0EEC00AA0
:1008E00081ED010A90ED020A013BB0EEC00A81EDF4
:1008F000020A90ED030A6046B0EEC00A81ED030AD9
:100900007146DFD17146604612F0030208BF80BD18
:10091000B0EC010A013AB0EEC00AA1EC010AF7D12D
:1009200080BD0000F0B5F1B1002300BF02EB430C25
:1009300032F813E0BCF802C02EF0030E2CF0030CCA
:1009400050F80E5050F80C6000EB0E0400EB0C0752
:1009500040F80E6040F80C507E68656802338B42A8
:1009600066607D60E2D3F0BD2DE9F04104889846D1
:1009700016460746012A0D460CD1E4B3281D214630
:1009800090ED000A0139B1EE400A80ED000A00F155
:100990000800F5D1FF2C0CDDB4F5806F10DBB4F549
:1009A000805F22D0B4F5006F11D0B4F5806F17D0FE
:1009B00021E03F2C10DC102C12D0202C07D01AE0A4
:1009C000B4F5807F03D0B4F5007F0ED013E0384635
:1009D000294600F05FF90EE0402C06D0802C0AD1A9
:1009E0003846294600F08AF805E07A68284621460C
:1009F000012300F0D7FDB8F1000F04D0B989BA681F
:100A00002846FFF78FFF012E1CD100EE104A002C64
:100A1000B8EE400A08BFBDE8F081B7EE001A81EEDB
:100A2000000A00BF95ED001A95ED012A20EE011A8B
:100A300022EE402A85ED001A85ED012A013C05F1E0
:100A40000805EFD1BDE8F08100224260FF294FF098
:100A5000FF0201800EDDB1F5806F16DB29D0B1F504
:100A6000805F2BD0B1F5006F46D147F67423C0F6F6
:100A7000010336E03F2913DC102924D020293BD183
:100A800047F69423C0F601032BE0B1F5807F1FD019
:100A9000B1F5007F30D147F6B423C0F6010320E062
:100AA00040291AD0802927D147F65423C0F60103E4
:100AB00017E047F64423C0F6010312E047F6A423EB
:100AC000C0F601030DE047F66423C0F6010308E019
:100AD00047F68423C0F6010303E047F6C423C0F6BB
:100AE0000103191D03F108020C331B881268096801
:100AF0008381C0E90112002250B270472DE9F0470E
:100B00002DED028B03888046084601EB830AD8F856
:100B100004200021B1EBD30F4FEA530900F0AB8062
:100B2000D9080AEB890C00EB890E0027C4190AEBDF
:100B3000070594ED000A95ED003A94ED011A95ED44
:100B4000014A0EEB07030CEB070694ED022A95ED24
:100B5000025A70EE035A93ED006AD6ED001AD6EDF4
:100B6000012AD6ED023AD6ED034AC4ED005A71EEE1
:100B7000045A93ED017AC4ED015A72EE055AD3ED91
:100B8000020AC4ED025AD4ED035AD5ED036A31EEE0
:100B9000441A35EEA68A36EE214AD3ED037A84ED67
:100BA000038A83ED004A37EE224A83ED014A30EE94
:100BB000A34A83ED024A37EEA44A83ED034AD319D0
:100BC00031EEC64A33EEE06AD3ED000AD3ED011AE6
:100BD00030EE430A32EE452A32EEC75A60EE202A42
:100BE00061EE213A21EE201A20EE210A31EE400A70
:100BF00085ED010A24EE210A25EE211A25EE205A60
:100C000072EEA32A24EE204A30EE450AC5ED002AF2
:100C100086ED000A34EE010A86ED010A93ED020A20
:100C200093ED031A35EEE63A22EE004A23EE015A1E
:100C300023EE003A22EE012A34EEE77A33EE422A1E
:100C400085ED032A26EE012A27EE011A27EE003A47
:100C500026EE000A34EE054A32EE432A30EE010A4F
:100C6000013907F1100785ED024A86ED022A86ED6B
:100C7000030A7FF45BAF4946022300F093FCD8F8E7
:100C80000420504649460223BDEC028BBDE8F047E4
:100C900000F088BC2DE9F04F81B02DED088B8EB0AF
:100CA00002880346500801EB800505EB800691EDB4
:100CB000000A91ED011A96ED002A96ED013A04938F
:100CC0005B6806EB800730EE024A30EE420A31EEF6
:100CD000032A31EE431A95ED013A95ED005A05933A
:100CE000930897ED017AD7ED000A029374EE452A36
:100CF00072EE433A34EE054A32EE032A6FF00103F6
:100D000034EE204A32EE072A03EB920230EE036AF9
:100D100071EE451A30EE430A31EE051A81ED004AB4
:100D20000A9181ED012A510836EE476A71EEA01A48
:100D300072EEE02A73EEC73A30EE070A31EE601A1F
:100D40000095019603970D91C10085ED006AC5EDF0
:100D5000011AC6ED002AC6ED013A87ED000A87EDBB
:100D6000011A0C9100EB40016FF007036FF00307CD
:100D70004FEA800E07EBC00B07EB800A03EB00196C
:100D800003EB81028C000020002500210B9100BFA5
:100D90000A9E059B07900695089406EB04080C9C98
:100DA000311806EB040C06EB0E0491ED020A9CEDE3
:100DB000022AD4ED020A30EE026AD8ED022A36EE9B
:100DC000204A34EE224A91ED031A9CED033AD4ED09
:100DD000031AD8ED033A81ED024A94ED034A31EE4D
:100DE000037A98ED035A37EE044ACDF824E034EE46
:100DF000054A81ED034A0B9930EE420A31EE431A5F
:100E000030EE212A03EB010E32EE634A31EE602A06
:100E10000D9932EE225A36EE602A37EE613A30EE04
:100E2000610A31EE201A1F18581932EE622A33EE89
:100E3000633A30EE230A002931EE621A00F0CC80CA
:100E40000A998E1801EB0A0301EB0905594493ED49
:100E5000007AD6ED010AD1ED003A77EE202AD5EDE1
:100E6000014A72EEA35A75EEA45A13ED016AD6ED4B
:100E7000001A51ED016AD5ED007AC3ED005A11ED6B
:100E8000018A76EE215A95ED009A35EE888A38EE81
:100E9000098A03ED018A97ED028A97ED039A24EE01
:100EA00008AA25EE09BA25EE085A24EE094A35EEBD
:100EB000444A37EE605A84ED034A36EE614A35EE15
:100EC000666A33EEE47A36EE276A74EE070A66EE57
:100ED000091A20EE899A60EE880A26EE086A3AEE30
:100EE0000BAA71EEE00A36EE096A84ED02AAC1EDA2
:100EF000000A01ED016A90ED046AD0ED050A62EE88
:100F0000061A23EE208A23EE063A22EE202A33EE3A
:100F1000422A8CED032A32EEE32A35EEE63A71EEF0
:100F2000881A33EE673A32EE642A0D98CCED021A35
:100F300062EE461A23EE066A23EE203A22EE202ABB
:100F400031EEC33A32EE462A013886ED013A86ED9B
:100F5000002A0D909EED062A9EED073A0C9820EE91
:100F6000026A61EE030A21EE021A20EE030A08303B
:100F700031EE400A37EEE61ADDF824E00C9088EDF9
:100F8000030A37EE440A31EE451A0B9821EE034A64
:100F900020EE033A20EE020A36EE206A21EE021A13
:100FA00034EE400A183088ED026A85ED010A31EE10
:100FB000030A089C0B9085ED000A069D07980EF128
:100FC000080E083410350830A9F10809083AABF1C9
:100FD000080BAAF1080ADBE697ED026A97ED037A9F
:100FE00064EE060A65EE071A25EE065A24EE074A55
:100FF00030EEA16A35EE444A84ED026A84ED034A7C
:1010000090ED044A90ED055A22EE046A23EE057A2B
:1010100023EE043A22EE052A36EE074A33EE422A40
:101020008CED024A8CED032A9EED062A9EED073ACE
:10103000029D20EE024A21EE035A21EE021A20EE12
:10104000030A0A98059A34EE052A31EE400A294629
:10105000042388ED022A88ED030A00F0A3FA049C19
:10106000009862682946042300F09CFA626801989F
:101070002946042300F096FA62680398294604235F
:101080000EB0BDEC088B01B0BDE8F04F00F08ABA9D
:1010900080B50023B3EB920F3DD04FEA920C00BF16
:1010A00090ED000A90ED011A20EE000A21EE011ADF
:1010B00030EE010A81ED000A90ED020A90ED031A6C
:1010C00020EE000A21EE011A30EE010A81ED010A3C
:1010D00090ED040A90ED051A20EE000A21EE011AA7
:1010E00030EE010A81ED020A90ED060A90ED071A32
:1010F00020EE000A21EE011A00F1200E30EE010A66
:1011000001F1100381ED030ABCF1010C7046194690
:10111000C6D11946704612F0030208BF80BD00BF59
:1011200090ED000A90ED011A20EE000A21EE011A5E
:1011300030EE010AA1EC010A013A00F10800EFD1FA
:1011400080BD000010B50023B3EB920F12D09408BD
:10115000036800F1100C0B60436801F1100E4B6046
:101160008368013C8B60C068C86060467146EFD1FF
:101170007146604612F0030208BF10BD50F8043BF0
:10118000013A41F8043BF9D110BD0180428043602F
:10119000704700002DE9F04F85B047880B889F42CB
:1011A00040F08480B0F800B013889B4540F07E800A
:1011B000B1F802E053889E4578D1D0F80480506899
:1011C00049680190BC0827F0030008EB800604FB87
:1011D0000EF09FED390A07F0030C029101EB0010AD
:1011E0004FEA8E0200210090CDE903E70198DDF877
:1011F00008A0009B00EB8109B0EE401A574640461C
:1012000074B3554627464046B0EE401A95ED002A85
:1012100090ED003A154490ED014A23EE022A95ED37
:10122000003A154490ED025A31EE021A24EE032AD8
:1012300095ED003A154490ED036A31EE021A25EE61
:10124000032A95ED003A31EE021A26EE032A31EE1A
:10125000021A013F00F110001544D7D11F46304655
:10126000BCF1000F0CD0654690ED002A97ED003AD6
:10127000043022EE032A31EE021A013D1744F3D165
:10128000A9EC011ABEF1010E0AF1040A03F10403EC
:10129000B2D1DDF80CE0049F714408EB8708BBF184
:1012A000010B06EB8706A1D1002000E0FD2040B233
:1012B00005B0BDE8F08F00BF000000002DE9F04F41
:1012C000B0F800A04A88924545D142880B889A42DE
:1012D00041D1D1F804C046684FEA920802F00309F0
:1012E0004FEA0A1E4FEA8A014FF0000B624600BF28
:1012F000B8F1000F1AD01546474600BF336828469C
:101300002B6073680D444350B3686C186B50F568DC
:1013100006F1100366186550013F06EB01051E46F5
:10132000ECD100EB0E071E4602E000BF0CEB8B0772
:10133000B9F1000F06D0484656F8043B01383B602F
:101340000F44F9D10BF1010BBAF1010A02F10402C9
:10135000CED1002000E0FD2040B2BDE8F08F0000BB
:1013600080B50023B3EB910F1ED09FED1A0A4FEA10
:10137000910E21F0030C034693ED001A93ED012A20
:1013800093ED023A30EE010A93ED034A30EE020A81
:1013900030EE030A30EE040ABEF1010E03F1100331
:1013A000EAD100EB8C0001E09FED0A0A11F0030383
:1013B00006D000BFB0EC011A013B30EE010AF9D1B2
:1013C00001EE101AB8EE411A80EE010A82ED000A11
:1013D00080BD00BF00000000F0B590ED000A4C1E7B
:1013E0004FF0000CBCEB940F00F1040E3BD0012732
:1013F0002646A50867F301064FF0000C042700BF3E
:101400009EED001A9EED012A9EED023AB4EE410ACD
:101410009EED034AF1EE10FAC4BFB0EE410AA7F107
:10142000030CB4EE420AF1EE10FAC4BFB0EE420A69
:10143000A7F1020CB4EE430AF1EE10FAC4BFB0EE0D
:10144000430AA7F1010CB4EE440AF1EE10FAC4BF4E
:10145000B0EE440ABC46013D07F104070EF1100E40
:10146000CED100EB860E14F003000ED0404200BF38
:10147000BEEC011AB4EE410AF1EE10FAC4BFB0EEB0
:10148000410A01EB000C0130F2D382ED000AC3F8EF
:1014900000C0F0BDB0B50025B5EB930F31D04FEAD9
:1014A000930C00BF90ED000A91ED001A00F1100EB0
:1014B00020EE010A82ED000A90ED010A91ED011A79
:1014C00001F1100420EE010A82ED010A90ED020AFA
:1014D00091ED021A02F1100520EE010A82ED020AD6
:1014E00090ED030A91ED031ABCF1010C20EE010A04
:1014F00082ED030A70462A462146D3D121462A4668
:10150000704613F0030308BFB0BD00BFB0EC010A82
:10151000B1EC011A013B20EE010AA2EC010AF5D15F
:10152000B0BD000080B50023B3EB910F26D09FED36
:101530001C0A4FEA910E21F0030C034693ED001AAA
:1015400093ED012A93ED023A21EE011A93ED034A3D
:1015500030EE010A22EE021A30EE010A23EE031ADF
:1015600030EE010A24EE041A30EE010ABEF1010E3B
:1015700003F11003E2D100EB8C0001E09FED080ABB
:1015800011F0030108D000BFB0EC011A013921EEBF
:10159000011A30EE010AF7D182ED000A80BD00BFCA
:1015A000000000002DE9F04F81B02DED108BA0B0B0
:1015B000DFED04CA00900430CDE902320190CDE99C
:1015C0001E1101E0F304353F1F9A4FF0000AD308C3
:1015D000DF00A7EBD200C0001D904FEAC20C03EB66
:1015E000430503EB8302580106931E01019B2C0166
:1015F0004FEAC20EED00CDE90C0ECDE90A5600BF50
:101600000A9D191803EB05091D9D03EB0E0003EB62
:10161000070810ED014A86469A19181903EB050BC5
:1016200013ED011A11ED012A18ED013A12ED017ABC
:1016300050ED010A59ED011A5BED012A31EE025A13
:1016400033EE046A77EE203A71EEA24A75EE235A21
:1016500076EE246A75EEA67A43ED017A75EEE65AC7
:10166000D8ED007A9EED008A99ED00BA9BED00CA94
:10167000D3ED006A41ED015AD1ED005A92ED009A86
:1016800090ED00AA37EE88EA7BEE0C8A36EEA5DAFA
:1016900039EE0AFA35EE635A36EE646A7EEE684A2F
:1016A0007DEE0F9A7DEE4F3A35EE24DA35EE645A30
:1016B0007EEE28AA02ED01DA33EEC6DA00ED015A19
:1016C00036EE235A31EE421A33EE442A37EE603AB0
:1016D00031EEE24A37EEC86A7BEE4C0A79EEAABADE
:1016E00079EEEA9A72EE441A32EE042A36EE604A35
:1016F00036EE206AC3ED00BAC1ED009A82ED00DA41
:1017000080ED005A36EEE55A39EE4A7A61EEAC1AAF
:1017100022EE2C2A24EE2C4A26EE2C6A71EE210AA7
:1017200073EE022A75EE043A77EE064A31EE611A3C
:1017300033EE422A35EE443A37EE464A26467446A0
:1017400070EEA45A70EEE40A31EE045A1F9A1E9904
:1017500048ED015A73EEE25A4BED010A72EEA30A0C
:10176000204604ED015A33EE425ADDF834E0C8ED6C
:10177000005ACBED000A84ED005A0C9831EE441A61
:1017800034460B9E924409ED011A32EE031A8A4543
:10179000634489ED001AFFF433AF1F984028C0F06E
:1017A000D4810298009E80B205900698CDE90E4C37
:1017B000C0EBC000C000002401251097049000BFBA
:1017C0000598039B044403EBC40191ED000A03EB6D
:1017D00004128DED1D0A92ED000A04EB440203EBA6
:1017E000C2008DED1C0A90ED000A03EB44118DED53
:1017F0001B0A91ED000A04EB8401C80003EBC10150
:101800008DED1A0A91ED000A4FEAC20A4FEA021B57
:1018100003EB02128DED190A92ED000AC4EBC4022B
:101820004FEAC40CD10003EBC2028DED180A92ED11
:10183000000A0CF104024FEA041E1A448DED170A47
:1018400092ED000A0EF104021A448DED160A92ED93
:10185000000A0AF104024FEA44191A448DED150AF0
:1018600092ED000A09F104021A448DED140A92ED7A
:10187000000A043018448DED130A90ED000A0BF1B4
:10188000040018448DED120A90ED000A081D18445A
:101890000994D0ED006A0796B44608952B46DDE919
:1018A0000C54DDE90A76DDF810808DED110A00BFD9
:1018B00010980E990CEB05090CEB000E0CEB0400D4
:1018C0000CEB060B0CEB010A0CEB07020CEB08010E
:1018D000DCED027A99ED028A9EED029A90ED02AA61
:1018E0009BED02DA9AED02EA92ED02FAD1ED028A5C
:1018F00037EE88BA39EE0ACA7DEE0E9A7FEE28AA34
:101900007BEE29BAF0EE6C3A7CEE2ACA7BEEACDABA
:10191000CCED02DA7BEEECBADCED03CAD9ED03DAEA
:10192000DEED03EAD0ED03FA9BED030A9AED031A0C
:1019300092ED032A91ED033A3CEEAD4A3EEEAF5AEA
:1019400030EE016A32EE037A74EE060A75EE071A7B
:10195000DDED1A4ADDED135A70EEA12A70EEE10AB0
:10196000CCED032A64EEAB1A65EEA02A71EEA21A42
:1019700064EEA00A65EEAB2A70EEE20AC9ED021A27
:10198000C9ED030A7BEE690A7CEE6A1A34EE464A18
:1019900035EE475A9DED1CCADDED154A30EE856ADD
:1019A00034EE617A6CEE062A24EE87BA2CEE077AC2
:1019B00024EE866A30EEC55A31EE844ADDED180A0F
:1019C000DDED111A37EE466A8BED036A20EE856A6B
:1019D00021EE847A20EE844A21EE855A37EE066A9B
:1019E00034EE454A39EE4A5A3FEE687A7EEEEF1AF7
:1019F00030EE410A32EE431A7BEE222A35EE472AB8
:101A000035EE073A31EEC15A31EE811ACBED022A9A
:101A10008AED026A8AED034A37EEC84A3DEE4E6A05
:101A20007CEEED0A22EE232A23EE233A25EE235AFA
:101A300021EE231AF0EE63CA34EE027A76EE031A30
:101A400070EE852A70EE017ADDED1D3ADDED164A65
:101A500037EE278A32EEE19A23EE88AA24EE89BA7D
:101A600023EE899ADDED173A37EE677A71EEA21A06
:101A700063EE872A66EEA17A63EEA11A26EE877AD4
:101A800024EE888A31EEC77A34EE422A36EE433AA3
:101A900030EEC54A30EE410ADDED190ADDED121ACD
:101AA00039EE488A32EE001A34EE435A8EED038A3C
:101AB00081ED037A20EE816A21EE857A20EE855A47
:101AC00021EE811A3AEE0BAA72EEA72A36EE076AC9
:101AD00035EE411A8EED02AAC1ED022A80ED026AAE
:101AE00080ED031A1F9833EE041A03441E989DEDEF
:101AF0001B4A9DED145A32EE400A83420F9824EEA1
:101B0000002A25EE013A24EE011A25EE000A32EEF3
:101B1000032A31EE400A844482ED022A82ED030A50
:101B2000FFF4C6AE089D0698079E0135099C8542C4
:101B300006F10806FFF444AE0298C00002901F9818
:101B40003F2806981F903FF63FAD20B0BDEC108BAC
:101B500001B0BDE8F08F10B578B14FF400710446C4
:101B6000FEF772FF50B94FF48060208247F6542090
:101B7000C0F602006061002000E0FF2040B210BD0E
:101B800010B568B140210446FEF75EFF48B98020D9
:101B9000208248F65420C0F602006061002000E078
:101BA000FF2040B210BD10B578B14FF480610446FB
:101BB000FEF74AFF50B94FF40060208248F65440C7
:101BC000C0F602006061002000E0FF2040B210BDBE
:101BD00010B570B180210446FEF736FF50B94FF4BE
:101BE000807020824AF65440C0F6020060610020F6
:101BF00000E0FF2040B210BD10B568B110210446CE
:101C0000FEF722FF48B9202020824BF25400C0F694
:101C100002006061002000E0FF2040B210BD10B55E
:101C200078B14FF400610446FEF70EFF50B94FF44F
:101C3000805020824BF2D400C0F602006061002088
:101C400000E0FF2040B210BD10B578B14FF48071B4
:101C50000446FEF7F9FE50B94FF4007020824FF2AF
:101C6000D400C0F602006061002000E0FF2040B216
:101C700010BD10B568B120210446FEF7E5FE48B955
:101C8000402020824FF6D400C0F6020060610020A0
:101C900000E0FF2040B210BDF0B581B014460E4602
:101CA000054673B12846314622461F4600F0A8F883
:101CB000284621463A46012301B0BDE8F040FEF730
:101CC00053BE2846314600220123FEF74DFE28462A
:101CD0003146224601B0BDE8F04000F0EBB8B1F566
:101CE000007F0ADA7F2916DC202929D040293BD140
:101CF00041F67341C0F600010847B1F5006F14DAF0
:101D0000B1F5007F21D0B1F5806F2DD141F657316B
:101D1000C0F60001084780291CD0B1F5807F23D18F
:101D200041F6D131C0F600010847B1F5805F16D009
:101D3000B1F5006F18D141F6A731C0F60001084790
:101D400041F6F931C0F60001084741F64941C0F6B5
:101D50000001084741F68131C0F60001084741F60D
:101D60001F41C0F6000108474FF0FF3070470000E8
:101D7000B0B50025B5EB930F31D04FEA930C00BFFF
:101D800090ED000A91ED001A00F1100E30EE410ABC
:101D900082ED000A90ED010A91ED011A01F11004A3
:101DA00030EE410A82ED010A90ED020A91ED021A2D
:101DB00002F1100530EE410A82ED020A90ED030AAD
:101DC00091ED031ABCF1010C30EE410A82ED030AD9
:101DD00070462A462146D3D121462A46704613F042
:101DE000030308BFB0BD00BFB0EC010AB1EC011A9B
:101DF000013B30EE410AA2EC010AF5D1B0BD000072
:101E000080B591ED001A91ED012AD0F814E0008818
:101E100031EE023AB6EE000A31EE421AB0F1010C90
:101E200023EE003A21EE001A82ED003A82ED011A0B
:101E300008BF80BD01F1080301EBCC010EF10800E1
:101E40000832043111ED011A91ED002A93ED003AA8
:101E500093ED014A90ED005A90ED016A33EE417A1C
:101E600072EE040A67EE051A60EE862A27EE066A0D
:101E700031EE031A34EE422A25EE205A31EE611A71
:101E800032EE062A31EE621A32EE452A21EE001AAF
:101E900022EE002A82ED001A82ED012ABCF1010C2B
:101EA00003F1080300F1080002F10802A1F10801A2
:101EB000C8D180BD91ED000A91ED011A03884069F7
:101EC00030EE002A31EE011AA3F1010C32EE013A94
:101ED000B6EE000A32EE411A23EE003A21EE001A65
:101EE00000F1080301F1080001EBCC0182ED003A9A
:101EF00082ED011A0832043111ED011A90ED003A19
:101F000091ED002A90ED014A93ED005A93ED016A9C
:101F100031EE437A72EE040A67EE051A27EE067A6E
:101F200031EE031A34EE422A25EE205A20EE866A5C
:101F300031EE211A32EE072A31EE061A32EE452A28
:101F400021EE001A22EE002A82ED001A82ED012A0B
:101F5000BCF1010C03F1080300F1080002F10802D2
:101F6000A1F10801C8D170472DE9F14F2DED088B83
:101F7000BEB0002503207B4F3D6000F0A9FA402150
:101F800018A800F0F1F908B102F0AAFA754C002087
:101F9000183C7D6060609FED74AA06460DF1400A12
:101FA000B0EE4A8A8DED3B8AF0EE488ADFED6FAAEB
:101FB000F7EE009AE9469FED6E9A9FED6EBA40F2F9
:101FC000FF2B4FF0010846E03868012802D00228B4
:101FD00041D155E010A918A800F09CF910AA0023DF
:101FE0000821104606F0A4FF002052464FEA0901DE
:101FF00032F9203000EE103A01EB8003B8EEC00A4F
:1020000020EE2A0A08EE490A83ED000A60EE080A6B
:10201000F5EEC00AF1EE10FA01D278EEA98AF0EEE0
:10202000480AB0EE408A401C00EE898A80B2082837
:10203000DED33D602168594578D1C4F80480A5609D
:1020400006E0022060604FF44050A060256002E08E
:102050002068401C206060680228B5D100F08EF92D
:1020600008B102F03DFA4448B6F5967F64D24FF4C9
:10207000FA51B61E4E43C910B6FBF1F149005DE0BE
:1020800010A928A800F046F910AA0023082110463C
:1020900006F04EFF082051464FEA090201EB80038B
:1020A00033F9203C00EE103A02EB8003B8EEC00A90
:1020B00020EE2A0A08EE490A83ED000A60EE080ABB
:1020C000F5EEC00AF1EE10FA01D278EEA98A08EE18
:1020D000090A401C80B21028B0EE408ADED33BAA29
:1020E00010216846FFF71EFA9DED3B0A234920EEBA
:1020F0000B0A10EE100A884214DD28EE8B0A2049E4
:1021000010EE100A88420DDDB01EB0F5957F07D89D
:102110004698102200EB861168468039FFF712F8C6
:10212000761CB6B2F0EE4A8A83E7FFE72168A1F594
:10213000A060FF388CD184E74FF49651016011A064
:1021400004F0D2FE1548C4F80C800570032000F09E
:10215000B1F9012000F0BCF93EB0BDEC088BBDE840
:10216000F88F000018000020000000000000003878
:102170003333733F0000803D200000206F12033A8C
:102180008FC2753D417564696F546F74616C73697A
:102190007A65203D202564200A00000054000020BC
:1021A0001FB50C46684603F087FA4FF0010061073F
:1021B000009008D04FF49170019002200290684680
:1021C00003F0C2FA1FBDC02001900620F6E702F01E
:1021D00087B90000014901200860704718000020FD
:1021E00070B514460546014600220C48FFF7D8FF9B
:1021F00002222146284604F099FA08490848086056
:10220000084602F0C7FF18B90021044800F00AF898
:10221000284603F0FDFF002070BD0000745200202E
:10222000003800402DE9F0410546344886B04FF0B3
:102230000008026842F48042026000682F4C00F4FB
:102240008040103C0590206840F00200206020682B
:1022500000F002000590206840F004002060206833
:10226000052700F0040005900220CDE90108460290
:102270000096CDE903076946214802F067FB082074
:102280000090694604971F4802F060FB206840F404
:102290000010206020681C4900F400100590286898
:1022A00088421FD11949C214C1F80480C1F80880BE
:1022B000C1F80C80C1E9046242148A618215CA61C6
:1022C0005202C1E908280322C1E90A281048C1F8CE
:1022D00030800860E96308468D6302F05EF90B48C0
:1022E00002F05CFA00220F210E2003F0B3F90E2059
:1022F00003F0A2F906B0BDE8F081000040380240CA
:10230000000402400008024000380040CC51002088
:102310005860024010B590B00C4600214FEA0D0302
:1023200030F8112052BA23F81120491C2029F7D384
:102330000C4A2146184604F03BFA002004EB8002C8
:1023400034F82010401C51800828F7D35FF00000BB
:1023500034F8201024F81010401C0828F8D310B0CE
:10236000002010BDBC5200208AB210B501460248C0
:1023700003F022F8002010BD7452002010B502486E
:1023800002F0D4FD002010BD74520020014902204B
:1023900008607047180000200A460146014803F013
:1023A0007DB800002C5200207047704770B505467C
:1023B0000C480C468AB240682946C3689420984766
:1023C00008B1012070BDB4F5003F01D2600801E002
:1023D0004FF6FF7082B22946034803F05FF80020F1
:1023E00070BD0000940000202C52002070B5164CE7
:1023F000204621694069F1B14FF400364FF6FF7570
:10240000B14201D2490800E0294689B2FFF7C4FF72
:102410002069B0F5803F01D2014600E0294662699B
:10242000B04202EB4101616100D24508694200EB14
:102430004100206170BDE1680129FBD103490968B1
:10244000BDE87040FFF7B2BF000000202000002070
:1024500070B5154986B0040005D0012C03D0022CBC
:1024600001D0032C07D1086840F008000860086814
:1024700000F0080005900D4E0D4D694636F8140029
:1024800000900120019002900220039055F8240052
:1024900002F05CFA36F8141055F82400002202F01D
:1024A00036FB06B070BD000030380240C42301087E
:1024B000840000200449054A31F8101052F8200029
:1024C000002202F024BB0000C42301088400002085
:1024D0000449054A31F8101052F82000012202F098
:1024E00016BB0000C4230108840000200349044AED
:1024F00031F8101052F8200002F004BBC22301088A
:102500007800002030B5040087B04FF0000008D1FB
:10251000184A136843F001031360126802F00102C5
:102520000592154D154B0222C1B1012914D135F880
:102530001410CDE902021248CDE9001053F824002E
:10254000694602F003FAAD1E002228570F2103F05E
:1025500081F8285703F070F807B030BD35F8141033
:10256000CDE90010CDE9020253F82400694602F0DB
:10257000EDF9F1E730380240C2230108780000206D
:1025800000001110FEE70000144A136823F0010355
:102590001360134A126801234AB9124A1268C2F33F
:1025A0000B02B2F58A6F04BF0F4A136009D00F4ABD
:1025B00093609368002BFCD11060106888420AD0A9
:1025C00007E01368002BFCD1094A106010688842AC
:1025D00001D000207047012070470000002000E07B
:1025E000002004E00010005C084C0258003002405B
:1025F000004C02582DE9F74F9CB006461E98002566
:10260000D0E9044017901E9880691B901E98C069FD
:1026100012901E98806802901E98C06801901E98C3
:10262000006B1A901E98C08C16901E98006A199024
:102630001698002840F36F81D6E9000706F10801DB
:102640000DF12809D1E900AB1036FDF7A7FD804652
:102650003846FDF7A3FD07465046FDF79FFD07905E
:102660005846FDF79BFD8646B54A08F0FF0009F184
:10267000020C52F8201012980B18C3F30900ADF8A1
:1026800028004FEA1821980ACBB2090A52F82330E1
:102690001844C0F30903ADF82A300A9B4FEA334AC5
:1026A000CBB252F8233003EB9023080AC3F309019D
:1026B000ADF82C1052F8200000EB9320C0F3090372
:1026C000ADF82E300B990CF106034FEA3149810A1F
:1026D000F8B252F820000144C1F3090C380AADF8F1
:1026E00030C000F0FF0C000A52F82CC00CEB912116
:1026F000C1F3090CADF832C0DDF830C04FEA3C48F8
:1027000000F0FF0C000A52F82CC00CEB9121C1F331
:10271000090CADF834C052F8200000EB9120C0F352
:102720000901ADF8361003F10C010D9B4FEA334758
:10273000830A0798C0B252F82000034407984FEA72
:10274000102CC3F30900ADF83800980A0CF0FF0311
:1027500052F8233018444FEA1C23C0F3090C03F04D
:10276000FF0BADF83AC052F82BB0DDF838C00BEBD8
:1027700090201B0AC0F3090B21F802BB52F823304A
:102780004FEA3C4C03EB9020C0F309034FEA902B37
:102790000EF0FF0021F8023B52F820000F9B83440B
:1027A0004FEA1E20CBF3090E21F802EB00F0FF0EDA
:1027B0004FEA334352F82EE00EEB9B2B4FEA102EDC
:1027C000CBF3090021F8020B00914FEA9B210EF098
:1027D000FF0B4FEA1E2E52F82BB0CDF860E08B4471
:1027E00000991098CBF3090EA1F800E0DDF860E045
:1027F00000994FEA304052F82E2002EB9B22C2F3A0
:10280000090BA1F802B0920A11991292DFF834B1C3
:10281000019A4FEA31412AFB0B22DFF82CB129FB48
:102820000B22DFF828B128FB0B22DFF824B127FBAD
:102830000B22DFF820B12CFB0B22DFF81CB123FBAD
:102840000B22DFF818B120FB0B224FF4803B21FB59
:102850000B2EDFF80CB1029A2AFB0B22DFF804B131
:1028600029FB0B22DFF800B128FB0B22DFF8FCB0BC
:1028700027FB0B224FEA3B4B2CFB0B22DFF8F0B07F
:1028800023FB0B22DFF8ECB020FB0B22DFF8E8B0D3
:1028900021FB0B22019201222AFB02F2DFF8DCA0CD
:1028A00029FB0A22DFF8D89028FB0922DFF8D48020
:1028B00027FB0822344F2CFB0722DFF8D0C023FB74
:1028C0000C22334B20FB0320324A21FB02000290F2
:1028D000AEF5801017992218531A19994FEAE37C24
:1028E000A3FB01470CFB0171002203FB021114F151
:1028F000004241F1000117904C001A98E10151FB90
:1029000010F01D9920F38F0021F8150016986D1C0A
:10291000A8423FF791AE1E98029981601E990198D6
:10292000C8601E991298C8611E9804611E99179874
:1029300048611E991B9888611FB00020BDE8F08F88
:10294000A0000020690078004E005B0037004200C4
:1029500024002D0015001C000A000F0003000600D3
:1029600096008800AC00A200BA00B400C000BE000F
:10297000B400BA00A200AC00880096000600030074
:102980000F000A001C0015002D0024004200370033
:102990005B004E00780069002DE9F74F9AB00446BD
:1029A00010690B905069169090691990D0690C903D
:1029B00090680290D06801901546106B1890E88CD2
:1029C0000027002840F3BF81688D0DF138090128E8
:1029D00000F0CA81C0B200EB40012378625C14F8B9
:1029E00000C003EB026214F810301B0403EB0C234D
:1029F00002EB0308C0EBC00214F8203014F802C048
:102A000014F8122003EB0C6C14F8113014F8211098
:102A10001E0400EB8003120414F803A014F8133012
:102A200006EB0A260CEB060A00EB400C0CEBC00C84
:102A300014F8306014F80CC01B0406EB0C6C00EBAF
:102A4000C006A65D03EB06230CEB030BC0EB0013E3
:102A5000E35C01EB036100EB800303EBC003E35C89
:102A600004EB001402EB03228E1800BFCD4808F0DF
:102A7000FF0150F821200C9911444FEA1822C1F3AC
:102A8000090302F0FF0CADF8383050F82CC009F102
:102A900002030CEB9121C1F3090CADF83AC0DDF84B
:102AA00038C0120A4FEA3C4902F0FF0C120A50F8F3
:102AB0002CC00CEB9121C1F3090CADF83CC050F8CF
:102AC000222002EB9121C1F30902ADF83E200F9ABA
:102AD0004FEA32480AF0FF0250F8222002EB91211F
:102AE000C1F3090C4FEA1A22ADF840C002F0FF0C06
:102AF000120A50F82CC002F0FF0A0CEB9121C1F32E
:102B0000090CADF842C050F82AA0120A0AEB912134
:102B1000C1F3090AADF844A050F822200BF0FF0AD7
:102B200002EB9122C2F30901ADF8461050F82AA039
:102B300003F112010AEB922A4FEA1B22CAF3090B96
:102B4000ADF848B002F0FF0B119B50F82BB0DDF848
:102B500040C00BEB9A2A4FEA122BCAF309024FEA44
:102B60009A2ACDF830A0ADF84A200BF0FF0A129A4D
:102B700050F82AE0DDF830A04FEA3C4C4FEA3343EE
:102B80004FEA3242F2444FEA1B2BCAF3090E21F8F6
:102B900002EB50F82BB00BEB9A2BCBF3090A21F880
:102BA00002AB4FEA9B2BCDF830B006F0FF0BDDF8FF
:102BB0004CA050F82BE0DDF830B0360AF344CBF3EC
:102BC000090E21F802EB4FEA9B2BCDF830B006F04E
:102BD000FF0B4FEA3A4A50F82BE0DDF830B0F344EF
:102BE0004FEA162ECBF3090621F8026B00911499D7
:102BF0004FEA31464FEA9B210EF0FF0B4FEA1E2EA3
:102C000050F82BB0CDF85CE08B440099CBF3090E63
:102C1000A1F800E0DDF85CE0009950F82E0000EB30
:102C20009B2BCBF3090048804FEA9B2115980C9110
:102C3000DFF874B101994FEA304029FB0B11DFF83E
:102C40006CB128FB0B11DFF868B12CFB0B11DFF81E
:102C500064B123FB0B11DFF860B122FB0B11DFF82D
:102C60005CB12AFB0B11DFF858B126FB0B114FF4B6
:102C7000803B20FB0B1EDFF84CB1029929FB0B11A6
:102C8000DFF844B128FB0B11DFF840B12CFB0B112E
:102C9000DFF83CB123FB0B114FEA3B4B22FB0B113E
:102CA000DFF830B12AFB0B11DFF82CB126FB0B113A
:102CB000DFF828B120FB0B110191012129FB01F163
:102CC000DFF81C9128FB0911DFF818812CFB081193
:102CD000DFF814C123FB0C11444B22FB0311444ABF
:102CE0002AFB0211434A26FB0211434A20FB021031
:102CF0000290296AAEF58010A1B10B9A4FF0000C3A
:102D00001318169A16909A1AA2FB0168D31703FBA0
:102D1000018102FB0C1116F1004241F10001490052
:102D20000B9108461899C00150FB11F0298D20F332
:102D30008F0001FB07F21B997F1C21F81200E88C21
:102D4000B8423FF741AE0298A8600198E8600C983D
:102D5000E8610B982861169868611998A8611DB000
:102D60000020BDE8F08F00BF04F10801D4E9008A1B
:102D7000D1E900B695F83400103410F0200F3FF47C
:102D800075AE4046FDF70AFA80465046FDF706FA52
:102D900082465846FDF702FA83463046FDF7FEF9B3
:102DA000064663E6A0000020690078004E005B0044
:102DB0003700420024002D0015001C000A000F00FF
:102DC0000300060096008800AC00A200BA00B40020
:102DD000C000BE00B400BA00A200AC00880096009B
:102DE000060003000F000A001C0015002D0024003F
:102DF000420037005B004E00780069002DE9F74F74
:102E000014468146D4E9056086B015690490D4E97A
:102E100002A0D2F81CB00390106B0290D08C0090EE
:102E2000106A019000984FF00008002843DD00BFB1
:102E300059F8020BFDF7B2F92649C2B2C0F30720D8
:102E400051F8222051F820005A4400EB9221C2F39D
:102E50000903C1F3090063F30F074FEA912B60F3F5
:102E60001F471D494FEA374020FB01A11B4A20FBA9
:102E700002FAA1F5006029188B1B01994FEAE37C47
:102E8000A3FB01560CFB0161002203FB021115F1AB
:102E9000004241F1000106464D000298290451FB11
:102EA00010F0079920F38F0021F81800009808F11E
:102EB00001084045BCDCC4F808A00398C4F81CB065
:102EC0006661C4E903050498A06109B00020BDE86B
:102ED000F08F0000A00000200100030003000100AB
:102EE0002DE9F74F14460646D4E9045084B04FF05C
:102EF0000008009090690390D4E90290D2F81CA0D9
:102F00000290106B0190D08CD2F834B0002852D9C6
:102F1000608D01285ED0C1B23078725C06EB41064C
:102F200000EB02202F49C2B2C0F3072051F8222043
:102F300051F82000524400EB9220C2F30903C0F381
:102F4000090163F30F074FEA902A61F31F472648F0
:102F50004FEA374121FB0090244A21FB02F9A0F5FA
:102F600000601BF0100F13D000992A18511A236A21
:102F70004FEAE17CA1FB035E0CFB03E3002201FBB3
:102F8000023115F1004241F100014D000090284648
:102F90000104019851FB10F0218D20F38F0001FBFB
:102FA00008F2059921F8120008F101001FFA80F8D3
:102FB000E08C4045ACD8C4F808900298C4F81CA036
:102FC000C4E90305009860610398A06107B0002080
:102FD000BDE8F08F56F8020B1BF0200F18BFFDF76D
:102FE000DDF89FE7A00000200100030003000100BE
:102FF0002DE9F74FD2E9041384B0D2F818C0CDF808
:103000000CC0D2E90256D2F830C0D769CDF808C05A
:10301000B2F82680CDF80080D2F820C0CDF804C0E8
:103020004FF0000CB8F1000FC8BF4FF0000B64DD8B
:103030001CF0010F6CD090F8028090F803904FEADA
:10304000084808EB092810F8049BC1444FEA972868
:10305000354F09F0FF0A4FEA192957F82AA0D04442
:10306000C8F3090A6AF30F0409F0FF0AC9F3072934
:1030700057F82AA057F829700AEB9828C8F3090ACC
:103080006AF31F4407EB9827DFF8A0904FEA344A11
:10309000C7F309082AFB0969254E2AFB065608EBE7
:1030A000480506EB45064FF001082AFB08F84544A1
:1030B000A9F5D8584144CB1A01994FEAE379A3FB0B
:1030C00001AE09FB01E103FB0B111AF1004341F1D1
:1030D000000143464900DDF808804FEA813959FB79
:1030E00018F8DDF8149028F38F0829F81C80DDF813
:1030F00000800CF1010CC4459ADBD761C2E90413CE
:10310000C2E902560398906107B00020BDE8F08F35
:1031100090F8038010F8019B4FEA084808EB092853
:1031200010F8019B91E70000A000002001000300BF
:10313000070006002DE9F74FD2E9055183B0D2F818
:1031400010C00291D2E90267D2F81C80116B019184
:10315000516B0091D18C0023002988BF4FF0000AE9
:1031600072D9518D01297CD0C9B210F8119010F894
:1031700001B04FEA094909EB0B2B90F8009001EBE5
:103180004101D94400EB0100484909F0FF0B4FEA27
:10319000192951F82BB00BEB9828C8F3090B6BF3E6
:1031A0000F0409F0FF0BC9F3072951F82BB051F8B0
:1031B00029100BEB9828C8F3090B6BF31F4401EBA4
:1031C0009828DFF8EC904FEA344BC8F309012BFB49
:1031D0000979384F2BFB076601EB410106EB4107EC
:1031E00001262BFB06F60E44A9F5D851DDF8009018
:1031F00019F0100F14D08C44ACEB0505D2F820C0A8
:103200004FEAE579A5FB0CBE09FB0CEC05FB0ACCEB
:103210001BF100454CF1000C4FEA4C0C0D46614689
:103220004FEA8139019959FB11F1B2F82890DDF884
:1032300010B009FB03F921F38F012BF81910591C69
:103240008BB2D18C99428CD8C2F81C80C2E904C5DB
:10325000C2E902670298906106B00020BDE8F08FD5
:10326000FFE7009911F0200F16D013F0010F09D0DD
:10327000817890F80390090401EB092110F8049B70
:10328000894481E7C17810F8019B090401EB092109
:1032900010F8019B894477E7817890F80190090440
:1032A00001EB092110F8039BEAE70000A0000020D1
:1032B00001000300070006002DE9F74F86B08246A3
:1032C00008984FF00008D0E90445806904900898F8
:1032D000D0F81C90D0E902B000900898006B0390E1
:1032E0000898C08C01900898006A02900198002804
:1032F00069DD00BF5AF8040BFCF750FF0146C3B26A
:103300003B48090A50F8233003EB9922C2F3090322
:1033100063F30F06CBB250F8233003EB92220B0A73
:1033200003F0FF0CC2F3090150F82CC01B0A0CEB90
:10333000922250F82300C2F3090C00EB92296CF39F
:103340000F07C9F3090061F31F4660F31F47294BBC
:10335000009A4FEA36414FEA374021FB03224FF4EF
:10336000803320FB0322244B21FB03B3DFF88CC006
:1033700020FB0C330093012321FB03F1204B20FBA6
:10338000031BA2F5804021184A1B02994FEAE27CF8
:10339000A2FB01450CFB0151002302FB031114F1B8
:1033A000004241F1000105464C000398610351FBC6
:1033B00010F0079920F38F0021F81800019808F108
:1033C0000108404596DC0898C0F808B008990098B4
:1033D000C8600898C0F81C90089804610898456176
:1033E00008990498886109B00020BDE8F08F0000BA
:1033F000A0000020030006000C000A000A000C00D8
:10340000060003002DE9F74F86B00546D2F810B04C
:1034100050690090906914460490D4E902A0D2F853
:103420001C900190106B0390506B0290D08C4FF069
:10343000000800287DD9608D01287BD0C1B201EB46
:1034400041002A78285C6B5C02EB006015F81120C3
:1034500005EB8105120402EB032210444649C3B276
:10346000000A51F8233003EB9922C2F3090363F3F6
:103470000F06C3B251F8233003EB9223020A02F085
:10348000FF0CC3F3090051F82CC0120A0CEB932374
:1034900051F82210C3F3090C01EB93296CF30F07C9
:1034A000C9F3090160F31F4661F31F47334B019ACB
:1034B0004FEA36404FEA374120FB03224FF4803376
:1034C00021FB03222E4B20FB03A3DFF8B8C021FB16
:1034D0000C330193012320FB03F02B4B21FB030A48
:1034E0000299A2F5804011F0100F15D000990BEB56
:1034F0000002511A236A4FEAE17CA1FB03BE0CFBD8
:1035000003E3002201FB02311BF1004241F1000103
:10351000490000908B4608464103039851FB10F088
:10352000218D20F38F0001FB08F2079921F812008A
:1035300001E008E016E008F101001FFA80F8E08CD5
:1035400040453FF678AFC4F808A00198C4F81C9035
:10355000C4E9030B009860610498A06109B00020E1
:10356000BDE8F08F029955F8040B11F0200F18BF39
:10357000FCF714FE72E70000A00000200300060024
:103580000C000A000A000C00060003002DE9F74FAA
:1035900092B0044614984FF0000AD0E904568069AE
:1035A0000F901498D0F81CB0806802901498C068EE
:1035B00001901498006B10901498C08C0990149886
:1035C000006A0E90099800287EDD00BF54F8040BB5
:1035D00054F8021B0491FCF7E1FD00900498FCF7FD
:1035E000DDFD034600995448C9B250F8211001EBA3
:1035F0009B2C00990A0ACCF3090161F30F074FEAEB
:103600009C2102F0FF0C50F82CC061444FEA122CB0
:103610000CF0FF0BC1F3090250F82BB04FEA1C2C41
:103620000BEB9121C1F3090B6BF30F0850F82CC081
:1036300003F0FF0B0CEB912CCCF3090150F82BB0ED
:10364000C3F307230BEB9C2CCCF3090B50F823009E
:103650006BF30F0900EB9C2BCBF3090062F31F47C0
:1036600061F31F4860F31F49DFF8D0C0019B4FEAA8
:1036700037424FEA38414FEA394022FB0C33DFF83A
:10368000C0C021FB0C334FF4803C20FB0C33DFF82F
:10369000B4E0DDF808C022FB0ECC4FF01B1E21FB6E
:1036A0000ECCDFF8A4E020FB0ECCCDF804C04FF028
:1036B000010C22FB0CF2DFF894C021FB0C21244A00
:1036C00020FB0210029000E022E0A3F558402918E8
:1036D0008A1B0E994FEAE27CA2FB01560CFB0161AA
:1036E000002302FB031115F1004241F100010646DF
:1036F0004D001098E90251FB10F0139920F38F0050
:1037000021F81A0009980AF1010A50453FF75EAF07
:1037100014990298886014990198C8601498C0F8A8
:103720001CB0149805611498466114990F9888612B
:1037300015B00020BDE8F08FA00000200A000F00A7
:10374000030006001900150015001900060003000B
:103750000F000A002DE9F74F90B00546106906905A
:1037600050690B9090690F90D2F81CA0906802905D
:10377000D0680190106B0E901446506B0D90E08C49
:103780004FF0000900287DD9608D01287BD0C0B2A0
:1037900000EB40012A786B5C15F800C002EB036275
:1037A00015F810301B0403EB0C2302EB030B15F888
:1037B000202000EB8000285C05EB410502EB002097
:1037C000CDF8100063480BF0FF0250F8222002EB06
:1037D0009A21C1F309034FEA1B2263F30F06D3B208
:1037E000120A50F8233002F0FF0C03EB9123C3F3CD
:1037F000090150F82CC0120A0CEB9323C3F3090CF7
:103800006CF30F0750F82220DDF810C002EB932371
:103810000CF0FF0CC3F3090250F82CC061F31F46F3
:103820000CEB9323DDF810C0C3F3090ACCF3072C8B
:103830006AF30F0850F82C0062F31F4700EB932A3D
:10384000CAF3090060F31F48DFF80CC1019B4FEA7F
:1038500036414FEA37424FEA384021FB0C33DFF85C
:10386000FCC022FB0C334FF4803C20FB0C33DFF810
:10387000F0B0DDF808C021FB0BCC4FF01B1B22FB86
:103880000BCC01E042E051E0DFF8D8B020FB0BCCDC
:10389000CDF804C04FF0010C21FB0CF1DFF8C8C0DB
:1038A00022FB0C11314A20FB02100D990290A3F566
:1038B000584011F0100F15D0069900230A180B99E3
:1038C000511A226A4FEAE17CA1FB02BE0CFB02E224
:1038D00001FB03211BF1004241F100014900069167
:1038E0000B900846C1020E9851FB10F0218D20F379
:1038F0008F0001FB09F2119921F8120009F1010072
:103900001FFA80F9E08C48453FF63EAF0298A06070
:103910000198C4F81CA0E060069820610B986061D3
:103920000F98A06113B00020BDE8F08F55F804BBDC
:1039300055F8020B04900D9810F0200F3FF442AFA1
:103940005846FCF72BFC83460498FCF727FC0490B0
:1039500038E70000A00000200A000F000300060066
:103960001900150015001900060003000F000A00D9
:103970002DE9F74F94B0824616984FF00009D0E930
:1039800004400F901698806912901698D0F81CB0D9
:10399000806802901698C06801901698006B11908C
:1039A0001698C08C0A901698006A10900A98002801
:1039B0007EDD00BFFAE802010091FCF7EFFB049006
:1039C0000098FCF7EBFB0146049A6948D2B250F824
:1039D000222002EB0B0C049A130ACCF3090262F3C7
:1039E0000F054FEA9C2203F0FF0C50F82CC06244F4
:1039F0004FEA132C0CF0FF0BC2F3090350F82BB065
:103A00004FEA1C2C0BEB9222C2F3090B6BF30F064F
:103A100050F82CC001F0FF0B0CEB922C50F82BB09F
:103A2000CCF309020BEB9C2CCCF3090B090A6BF3CA
:103A30000F0701F0FF0B63F31F4550F82BB062F343
:103A40001F460BEB9C2C4FEA112B0BF0FF0ECCF317
:103A5000090150F82EE04FEA1B2B0EEB9C2CCCF307
:103A6000090E50F82B006EF30F0800EB9C2CCCF3E2
:103A700009004FEA9C2B61F31F4760F31F48DFF8F2
:103A8000F4E0DDF804C04FEA35434FEA36424FEA2E
:103A900037414FEA384023FB0ECCDFF8DCE022FB55
:103AA0000ECCDFF8D8E021FB0ECC4FF4803E00E0D6
:103AB00048E020FB0ECCCDF800C0DFF8C4E0DDF814
:103AC00008C023FB0ECC20FB1ECEDFF8B8C022FBC3
:103AD0000CEE21FB1CECCDF804C04FF0010C23FBD5
:103AE0000CF3DFF8A4C022FB0C32284B21FB03218E
:103AF000274A20FB0210DDF800C00290ACF5003030
:103B00000F992218531A10994FEAE37CA3FB014E38
:103B10000CFB01E1002203FB021114F1004241F110
:103B200000010F904C001198A10251FB10F0159963
:103B300020F38F0021F819000A9809F1010948457E
:103B40003FF738AF16990298886016990198C860B7
:103B50001698C0F81CB01698046116990F98486121
:103B600016991298886117B00020BDE8F08F000008
:103B7000A000002015001C000A000F000300060032
:103B80002A00240030002E00060003000F000A0067
:103B90001C0015002DE9F74F92B0054610690590FD
:103BA00050690E9090691090D069079090680190CC
:103BB000D06802901446106B0F90E08C4FF0000B11
:103BC000002840F3DC80608D012800F0E98000EBE4
:103BD00040012A786B5C15F800C002EB036215F80F
:103BE000103015F811101B0403EB0C23D618C0EB92
:103BF000C00215F82030AA5C03EB02620B0400EB54
:103C00008001695C05EBC00503EB012111440391C0
:103C10006C48F1B250F8212007991144C1F309030F
:103C2000320A63F30F07D3B2120A50F8233002F0BE
:103C3000FF0C03EB9121C1F3090350F82CC0120AC9
:103C40000CEB9121C1F3090C6CF30F08DDF80CC0EB
:103C500050F822200CF0FF0C02EB912150F82CC000
:103C6000C1F309020CEB912C0399CCF30906090A64
:103C700066F30F09CEB263F31F4750F8266062F374
:103C80001F4806EB9C2C0E0A06F0FF0ECCF3090130
:103C900050F82EE0360A0EEB9C2CCCF3090E50F8AF
:103CA00026006EF30F0A00EB9C2CCCF309004FEAC0
:103CB0009C2CCDF81CC061F31F4960F31F4A424E93
:103CC000DDF808C04FEA37434FEA38424FEA39413E
:103CD0004FEA3A4023FB06CC3C4E22FB06CC3C4E3E
:103CE00021FB06CC4FF4803620FB06CEDFF8E4C083
:103CF000019E23FB0C6620FB1C66DFF8DCC022FB68
:103D00000C6621FB1C6CCDF808C04FF0010C23FBA6
:103D10000CF3DFF8C8C022FB0C32314B21FB03212E
:103D2000304A20FB02100190216AAEF50030A1B1AB
:103D3000059A4FF0000C13180E9A0E909A1AA2FBD7
:103D4000016ED31703FB01E102FB0C1116F10042D7
:103D500041F1000149000591084681020F9851FB8D
:103D600010F0218D20F38F0001FB0BF213990BF162
:103D7000010B21F81200E08C58453FF724AF019861
:103D8000A0600298E0600798E061059820610E98B5
:103D900060611098A06115B00020BDE8F08F00BFF1
:103DA000F5E80260039094F8340010F0200F3FF41F
:103DB0002FAF3046FCF7F2F906460398FCF7EEF910
:103DC000039025E7A000002015001C000A000F004A
:103DD000030006002A00240030002E000600030025
:103DE0000F000A001C0015002DE9F74F96B04FF0A8
:103DF000000A1898D0E90440119018988069129030
:103E00001898C06909901898806801901898C0683F
:103E100002901898006B14901898C08C0B9018980A
:103E2000006A13900B98002840F3FA80169850F817
:103E3000041B50F8042B039250F802BB169008465E
:103E4000FCF7ACF904900398FCF7A8F903905846E6
:103E5000FCF7A4F900900498DFF8F0B1C0B25BF869
:103E60002010099801440498020AC1F3090060F384
:103E70000F05880AD1B25BF821100844110AC0F37B
:103E8000090262F31F45CAB24FEA354C5BF82220A3
:103E900002EB9022080AC2F309015BF8200061F3EB
:103EA0000F0600EB9220C0F3090161F31F4603994E
:103EB0004FEA3643C9B25BF8211001EB9020039919
:103EC000C0F30902090A62F30F07CAB2090A5BF8D4
:103ED000222001F0FF0E02EB90205BF82EE0090A91
:103EE000C0F309020EEB90205BF82110C0F3090E1D
:103EF00001EB9020C0F30901800A099000986EF34D
:103F00000F08C0B262F31F475BF820E0099861F325
:103F10001F48864400984FEA3742000A0090CEF3CB
:103F2000090060F30F090098CDF84090C0B24FEA45
:103F300038415BF8200000EB9E2BCBF3090060F3C7
:103F40001F494FEA9B2BCDF824B0DFF804E1DDF8E0
:103F500008B04FEA39402CFB0EBBDFF8F8E023FB3A
:103F60000EBBDFF8F4E022FB0EBBDFF8F0E021FB34
:103F70000EBB4FF4803E20FB0EBBCDF800B0DFF847
:103F8000E0E0DDF804B02CFB0EBBDFF8D8E023FB4B
:103F90000EBB4FF04B1E22FB0EBBDFF8CCE021FB2B
:103FA0000EBBDFF8C8E020FB0EBBCDF808B04FF029
:103FB000010B2CFB0BFCDFF8B8B023FB0BC3DFF8C5
:103FC000B4C022FB0C322C4B21FB03212B4A20FBDB
:103FD0000210DDF800B00190ABF57A30119922188B
:103FE000521A13994FEAE27CA2FB014B0CFB01B180
:103FF000002302FB031114F1004241F10001119072
:104000004C001498610251FB10F0179920F38F00B7
:1040100021F81A000B980AF1010A50453FF706AF44
:1040200018990198886018990298C8601899099899
:10403000C8611898046118991198486118991298E4
:10404000886119B00020BDE8F08F0000A0000020BA
:1040500024002D0015001C000A000F0003000600BC
:104060003F003700490045004500490037003F0048
:10407000060003000F000A001C0015002D0024009C
:104080002DE9F74F94B004461069069050691090DE
:1040900090691290D069099090680290D068019060
:1040A0001546106B1190E88C4FF0000A002840F381
:1040B0003081688D012800F03D81C0B200EB4001E5
:1040C0002278635C14F800C002EB036214F810302D
:1040D00014F811101B0403EB0C2302EB030BC0EBD1
:1040E000C00314F82020E35C02EB03620B0400EB36
:1040F000800114F801C003EB0C231A44039214F856
:10410000302000EBC000205C04EB410402EB0020F7
:10411000CDF8000095480BF0FF0150F821200999D7
:104120000A44C2F309034FEA1B2163F30F06CBB223
:10413000090A50F8233003EB9222C2F3090363F318
:104140001F46CBB2090A50F8233050F8211003EB78
:104150009222C2F3090301EB922163F30F07C1F32B
:10416000090262F31F47039A4FEA364CD2B24FEA74
:10417000374350F8222002EB9121039AC1F3090E34
:104180004FEA122B0D9A6EF30F020BF0FF0E50F850
:104190002EE00EEB91214FEA1B2EC1F3090B6BF3BE
:1041A0001F420EF0FF0B0D9250F82BB04FEA324237
:1041B0000BEB91214FEA1E2BC1F3090E50F82BB0E7
:1041C0006EF30F080BEB912BCBF309014FEA9B2BFE
:1041D000CDF824B0DDF800B061F31F480BF0FF0B01
:1041E0004FEA384150F82BE0DDF824B0F344DDF815
:1041F00000E04FEA1E2ECDF800E0CBF3090E6EF37F
:104200000F09CDF83C90DDF800E04FEA9B290EF055
:10421000FF0B50F82B0000EB090BDDF83C90CBF3C3
:10422000090060F31F494FEA9B2BCDF824B0DFF85B
:1042300040E1DDF804B04FEA39402CFB0EBBDFF85B
:1042400034E123FB0EBBDFF830E122FB0EBBDFF8CD
:104250002CE121FB0EBB4FF4803E20FB0EBBCDF8C2
:1042600000B0DFF81CE1DDF808B02CFB0EBBDFF876
:1042700014E123FB0EBB4FF04B1E22FB0EBBDFF8FD
:1042800008E121FB0EBBDFF804E120FB0EBBCDF8FB
:1042900004B04FF0010B2CFB0BFCDFF8F4B023FB58
:1042A0000BC3DFF8F0C022FB0C323B4B21FB032198
:1042B0003A4A20FB02100290DDF800B0296AABF503
:1042C0007A30A1B1069A4FF0000C1318109A9A1A7E
:1042D000A2FB01BED31703FB01E102FB0C111BF192
:1042E000004241F100014900069110900846410248
:1042F000119851FB10F0298D20F38F0001FB0AF279
:1043000015990AF1010A21F81200E88C50453FF78F
:10431000D0AE0298A8600198E8600998E861069814
:104320002861109868611298A86117B00020BDE854
:10433000F08F00BF54F804BB54F8040B039054F8FA
:10434000020B009095F8340010F0200F3FF4E2AE1D
:104350005846FBF723FF83460398FBF71FFF0390A4
:104360000098FBF71BFF0090D4E60000A00000209F
:1043700024002D0015001C000A000F000300060099
:104380003F003700490045004500490037003F0025
:10439000060003000F000A001C0015002D00240079
:1043A0000148C06B00F02AB9745200200148806BAC
:1043B00000F024B92C520020014800F01FB9000081
:1043C0000C51002001681823CAB2103AB2FBF3F274
:1043D000054B6FF30901032A9B5CC36500D9091DD6
:1043E0008165084670470000A023010810B501460A
:1043F00000208B698A6A4FF0C07453B1B3F5005F37
:1044000015D072B1012A0CD0022A0AD0032A09D190
:1044100004E01AB1012A06D0022A03D1C96AC901EF
:1044200000D5012010BDC96AA142FAD010BD002AF2
:10443000F7D0012AF2D0022AF3D0032AF3D010BD1C
:1044400030B50468256825F480252560046863601C
:104450008368402B036803D099600068C26030BD58
:104460009A600068C16030BD0E48016821F080711B
:104470000160016841F0807101600B48016821F022
:1044800001010160016841F001010160002141600A
:1044900000BF00BF00BF406808B100207047012086
:1044A00070470000FCED00E0001000E031B5084D61
:1044B0006C6801F081FA0749B0FBF1F000994843BC
:1044C000009068680099001B8842FAD338BD00004C
:1044D000001000E040420F007047012000F02ABAAF
:1044E0000220FDF7F5FFFEE72DE9F0410446876D58
:1044F00000F012FB064694F835000025022806D08D
:104500008020606584F834500120BDE8F081206887
:10451000016821F0160101602068416921F08001E5
:104520004161206C08B9A06C20B12068016821F0BD
:10453000080101602068016821F0010101600BE0C1
:1045400000F0EAFA801B052806D92020606504F8EF
:10455000345F03206070D8E720680068C007EFD19F
:1045600094F85C103F208840B86004F8345F012064
:1045700060700020C9E790F83510022903D080212F
:10458000416501207047052180F8351000680168F9
:1045900021F0010101600020704770B504002BD0AC
:1045A00094F83500022826D02068016821F0010126
:1045B00001602068002505602068456020688560EE
:1045C0002068C56020680561216821204861204677
:1045D000FFF7F8FEE56325646564A564E564256579
:1045E00094F85C203F2191408160656584F83550E6
:1045F00084F83450002070BD012070BD2DE9F843CF
:1046000004464FF00009CDF8009063484FF416516E
:10461000A56D0068B0FBF1F72E6894F85C100820D7
:1046200000FA01F131420FD021680A6852070BD518
:104630000A6822F004020A6094F85C108840A860BE
:10464000606D40F00100606594F85C104FF0010867
:1046500008FA01F0304208D021684969090604D5FA
:10466000A860606D40F00200606594F85C10042062
:104670008840304208D021680968890704D5A860BD
:10468000606D40F00400606594F85C101020884074
:10469000304218D021680968090714D5A86020683D
:1046A0000168490304D50068000308D5A16C07E040
:1046B0000168C90503D4016821F008010160216C7B
:1046C00009B12046884794F85C1020208840304289
:1046D00031D021680968C9062DD5A86094F8350045
:1046E00005282068016806D0490347D50068000303
:1046F0001DD4616C1CE021F0160101602068416945
:1047000021F080014161206C08B9A06C20B12068C3
:10471000016821F00801016094F85C103F20884096
:10472000A86084F8349084F83580216D1FE0E16B37
:1047300009B120468847606D00282BD0606DC00706
:1047400014D0052084F835002068016821F00101AB
:1047500001600098401C0090B84203D820680068AF
:10476000C007F6D184F8349084F83580E16C0029D4
:1047700010D001B02046BDE8F04308470168C905E4
:10478000D5D4016821F01001016084F8349084F8D8
:104790003580CCE7BDE8F883740000202DE9F041B6
:1047A000044600F0B9F906465CB1002584F834509F
:1047B000022084F835002068016821F001010160C1
:1047C0000DE00120BDE8F08100F0A6F9801B05286E
:1047D00005D920206065032084F83500F2E72068C1
:1047E0000068C007F0D12268116820480140D4E970
:1047F00001031843D4E9033633431843636918436C
:10480000A3691843E3691843236A18430843616A9C
:10481000042903D1D4E90B1319430843106020681D
:104820004069666A20F0070130460E4301270428DC
:104830000CD1A06A0643E06A40B12046FFF7D6FDDE
:1048400020B14020606584F83570BAE72068466181
:104850002046FFF7B7FD94F85C203F21914081602E
:10486000656584F835700020ACE700003F8010F0EB
:104870002DE9F0410446866D90F8340000250128AA
:104880000DD0012084F8340094F835700020012FF9
:1048900007D084F8340002252846BDE8F0810220C4
:1048A000FBE7022784F8357060652046FFF7C8FDF6
:1048B00094F85C103F208840B0602068016841F0A7
:1048C00016010160206C20B12068016841F00801E8
:1048D00001602068016841F001010160DCE700002F
:1048E00070B5044600F018F90546601C02D0044873
:1048F0000078044400F010F9401BA042FAD370BDC8
:104900006800002010B5012810D100F005F9084C0E
:10491000A168401A0A2809D900F0FEF8A06000201A
:10492000FDF7E4FD0028FAD10120207010BD000041
:1049300054000020044910B50A68024202D0086001
:10494000FFF7E0FF10BD0000143C01402DE9F84FD7
:1049500000224FF0010803254FF00F0E0B6808FAF4
:1049600002F42340A3426ED14E68012E05D0022EE0
:1049700003D0112E01D0122E12D186684FEA420CBC
:1049800005FA0CF7BE43CF6807FA0CF73743876088
:104990004668A6430C79C4F3001494403443446041
:1049A000C668570005FA07FC8C6826EA0C06BC406E
:1049B0003443C4604C68022C01D0122C13D1D408AB
:1049C00000EB8404A346D4F8209054074FEAD46A3D
:1049D0000EFA0AF629EA06090E6906FA0AF646EA06
:1049E0000906CBF8206006680C7926EA0C0604F06C
:1049F0000304BC40344304604C68E40065D5364C85
:104A0000266846F480462660246822F0030604F4F3
:104A100080440094314C3444A446D4F808489607A6
:104A2000370F0EFA07F6B4432D4EB04201D10026DF
:104A300024E02C4EB04201D101261FE02A4EB042A4
:104A400002D102261AE040E0284EB04201D10326EE
:104A500014E0274EB04201D104260FE0254EB042AB
:104A600001D105260AE0244EB04201D1062605E018
:104A7000224EB04201D1072600E00826BE40264360
:104A8000CCF808681E4E34684F689C43FF0300D57D
:104A90001C4334601A4C241D26684F689E43BF0394
:104AA00000D51E432660164E083634684F689C4376
:104AB000FF0200D51C433460114E0C3634684F6839
:104AC0009C43BF0200D51C433460521C102AFFF4E3
:104AD00045AFBDE8F88F0000443802400030014087
:104AE000000002400004024000080240000C0240A6
:104AF000001002400014024000180240001C024056
:104B0000003C01400069084000D0012070470AB114
:104B1000816170470904FBE7014880687047000025
:104B20006800002070B5040025D094F83D000025F1
:104B300020B984F83C50204600F0B8F8242084F8CE
:104B40003D002068016821F00101016020680168D2
:104B500041F4004101602068016821F400410160D6
:104B600000F030FF4D4A6168914201D84C4900E0A5
:104B70004C49884201D2012070BD4B492368B0FBEB
:104B8000F1F15E6826F03F060E435E606368934273
:104B900006D94FF4967359434FF47A73B1FBF3F18E
:104BA0002368491C1E6A26F03F063143196261687A
:104BB000914210D84900401EB0FBF1F2521CC2F3E2
:104BC0000B02042A01D2042022E0B0FBF1F0401CC9
:104BD000C0F30B001CE0A268F2B301EBC10303EBCE
:104BE0000116431EB3FBF6F35B1C43F480431B0525
:104BF00049D092B301EBC10202EB0111401EB0FBA0
:104C0000F1F0401CC0F30B0040F4804040F4004041
:104C10002168CA694CF6FF739A431043C861D4E90E
:104C2000071001432068026822F0C00211430160AE
:104C3000D4E9030101432068826848F2FF339A43B4
:104C400011438160D4E9050108432168CA6822F054
:104C5000FF021043C86001E00EE016E02068016822
:104C600041F0010101602564202084F83D002563A6
:104C700084F83E50002070BD01EB4106431EB3FB9B
:104C8000F6F35B1CB3E70120C2E701EB4101401ED4
:104C9000B0FBF1F0401CC0F30B00B7E7A0860100A9
:104CA00080841E0000093D0040420F00F0B587B02F
:104CB000044614216846FBF7CFFA1A492068884257
:104CC0002DD11948016841F004010160016801F02B
:104CD00004010591016841F001010160006812249E
:104CE00000F0010005904FF4007001250326042711
:104CF0008DE8F10069460D48FFF728FE28028DE88F
:104D0000F10069460A48FFF721FE074810300168A4
:104D100041F400010160006800F40000059007B054
:104D2000F0BD0000005C0040303802400008024046
:104D3000000002402DE9FF410446006881680091AF
:104D40007749784E4FF04027884201D1324600E043
:104D50003A469268019240688846029001D13046F6
:104D600000E038464068039060684FF00105B0F5F8
:104D7000007F1CD0D8B1900705D50398000602D556
:104D8000204601F095FA0098C0070FD0029840061F
:104D90007FD521682046CA68E16A8B1CE3620A80DD
:104DA000618E491E6186618E002967D071E000988E
:104DB000800719D50298000616D5616A20468A1C1C
:104DC000626222680988D160618D491E6185618DAA
:104DD00051B901684A6822F0A0024A60418E19B9AF
:104DE00080F8415000F0A0F80198C00705D0039862
:104DF000400602D5204601F02BFA0198400622D544
:104E0000039880061FD52168414501D1304600E056
:104E10003846406820F0600101D1304600E0384655
:104E200041602068416821F0A00141602068C168AC
:104E30008068019084F84150606C40F0020060642A
:104E4000204600F093F90098000767D50298800685
:104E500064D52068416821F0A00141602168414586
:104E600001D1304600E03846406820F0600000D0B4
:104E70003E46706020688068009043E001684A68A0
:104E800022F060024A60418D19B980F8415000F06B
:104E90004BF8009840061ED5029880061BD5206866
:104EA000416821F0600141602168414501D13046EF
:104EB00000E03846406820F0A00101D1304600E013
:104EC0003846416084F84150606C40F002006064F4
:104ED000204600F04BF9019800071FD50398800683
:104EE0001CD52168414501D1304600E03846406874
:104EF00020F0A00000D03E4670602068416821F09C
:104F00006001416084F84150606C40F004006064CE
:104F100004B02046BDE8F04100F028B9BDE8FF81AB
:104F20000038004000340040704700002DE9F84F81
:104F3000044600254068DFF82CA28B4EAB464FF0AC
:104F400040274FF00108B0F5007F07D030B1B0F531
:104F5000407F78D0B0F5807F75D0F6E0A06B38B197
:104F6000FFF7C2FA20B1606C40F0080060640125D0
:104F7000642301220221204601F085FA30B1606CE1
:104F800040F00100606484F8418001256423002220
:104F90008021204601F077FA30B1606C40F00100CA
:104FA000606484F8418001252068C16921F4806132
:104FB000C161206881680091416821F0020141606F
:104FC00094F8410005283CD1E06B38B1FFF78CFA2A
:104FD00020B1606C40F008006064012521685046F3
:104FE000814201D1314600E03946C96921F480612E
:104FF00001D1324600E03A46D161CDF800B02168D7
:10500000814201D1314600E03946C968009101D1A1
:10501000314600E039468968009101D1314600E00F
:105020003946496821F0010101D1324600E03A4693
:105030005160616800297DD02168514500D03E460D
:10504000F06882E0FFE7E06B38B1FFF74DFA20B17E
:10505000606C40F008006064012594F84100052868
:105060005ED1A06B38B1FFF73FFA20B1606C40F021
:10507000080060640125FFF74FFD81460DE000BF89
:10508000FFF74AFDA0EB0900642806D9606C40F0E8
:105090000100606484F8418001252168514501D1F7
:1050A000314600E039468968C9438907E8D40CE0F5
:1050B000FFF732FDA0EB0900642806D9606C40F0D0
:1050C0000100606484F8418001252168514501D1C7
:1050D000304600E038468068C0430006E8D55145B8
:1050E00001D1314600E03946C96921F4806101D11E
:1050F000324600E03A46D161CDF800B02168514512
:1051000001D1304600E038468068009001D1304639
:1051100000E03846406820F0020000D03E46706053
:105120002068C16921F48061C1612068C16881681B
:10513000009100E00EE0416821F0010141606068EB
:10514000B0F5807F06D02068C06884F8418028468A
:10515000BDE8F88F606C40F04000606484F84180E6
:105160000125F2E7003800400034004010B5044645
:1051700000680649884201D1FDF716F90449206804
:10518000884201D1FDF723F810BD0000003C00402B
:105190000038004090F84100704700002DE9F047CA
:1051A000040005D094F841004FF0000818B109E060
:1051B0000120BDE8F08784F84080514860632046B4
:1051C00000F0A6F8022684F841602068C16940F624
:1051D000BF77B943C1612068066260694FF4007906
:1051E00002282FD0E06870B12025A068202800D8C0
:1051F0006D00012000F07AFA216949451FD1E1686C
:1052000019B1A90002E01025EFE7E900B0FBF1F0C9
:1052100000EB800061694000B0FBF1F0401D0A2105
:10522000B0FBF1F000F00101401A40080902821EB3
:10523000FE2A09D3606C40F010006064B8E7B0FB50
:10524000F5F0E5E7022000212269084302432068C7
:105250000262D4E901010843A269E16811430843ED
:105260002168CA69BA43104340F40060C861206AEB
:1052700001283AD12348606323482168234A4FF02C
:105280004023814201D1114600E01946C96921EA53
:10529000070101D1154600E01D46E9612168814200
:1052A00001D1114600E019460E622568854201D100
:1052B000114600E01946C9698EB2616849451BD0A4
:1052C000D1B100212789B4F80CC047EA0C07B4F823
:1052D00018C04CEA010C47EA0C07B9B2314341F45B
:1052E0000061854200D01A46D161C4F84480012093
:1052F00084F8410000205CE74FF48071E2E7000091
:1053000095630008354D0008003800400034004027
:10531000F0B587B0044614216846FAF79DFF22498C
:10532000206888423DD121480024016841F4804131
:105330000160006800F4804005901C481038016846
:1053400041F004010160016801F004010591016868
:1053500041F0020101600068022500F002000590A2
:1053600004200090CDE901540620CDE90340104F00
:1053700069463846FFF7EAFA08200090CDE9015463
:105380000526CDE9034669463846FFF7DFFAB00245
:105390000090CDE90154CDE9034669460548FFF781
:1053A000D5FA07B0F0BD0000003800404038024098
:1053B0000008024000040240F8B5044681B17AB109
:1053C00094F84000012809D0012684F8406094F840
:1053D00041000025012805D084F840500220F8BD86
:1053E0000120F8BD042084F841006564E162206872
:1053F000C06900F00700032813D0052811D02286C9
:105400006286E16B1E480864E16B1E48C863E16B6D
:105410001D48C8642168C869C0F30120032807D06B
:1054200009E04FF6FF7000EA420020866086E8E758
:10543000C86888680090238E0C31E26AE06BFFF741
:1054400017FA40B154F8440F40F0080044F804093A
:1054500066702570C4E72068C169490503D4C16935
:1054600041F48061C16120684168C90703D1416886
:1054700041F00101416084F840500020F8BD000077
:105480005D630008396300081163000810B5FCF77C
:105490007DFF10BD10B5FCF79DFE10BD70B5044634
:1054A00081B17AB194F84000012809D0012684F82E
:1054B000406094F841000025012805D084F8405050
:1054C000022070BD012070BD032084F84100656496
:1054D00061622068C06900F0070003281DD005281C
:1054E0001BD022856285A16B19480864A16B1948FD
:1054F000C863A16B1848C864238D2268616A0C32A6
:10550000A06BFFF7B5F978B154F8440F40F00800EC
:1055100044F8040966702570D4E74FF6FF7000EA7E
:10552000420020856085DEE72068C169490503D413
:10553000C16941F48061C16120684168890703D471
:10554000416841F00201416084F84050002070BD84
:105550008B630008676300081163000810B50068DA
:105560000249884201D1FCF741FF10BD003C0040D8
:1055700010B500680249884201D1FCF716FF10BD42
:10558000003C004002488168027811448160704705
:10559000680000200B4810B5016841F400710160FB
:1055A000016841F480610160016841F4807101602B
:1055B000032000F06FF8002000F006F800F024F857
:1055C000002010BD003C024070B50D4D04464FF464
:1055D0007A712878B1FBF0F00A490968B1FBF0F064
:1055E00000F062FC48B9102C07D200222146501E60
:1055F00000F030F800206C6070BD012070BD00002C
:1056000068000020740000200A4808B5016841F4D1
:1056100080410160006800F4804000900548001F50
:10562000016841F080510160006800F080500090F6
:1056300008BD000044380240002809DB00F01F02CA
:10564000012191404009800000F1E020C0F80011E4
:1056500070470000F0B40E4B1B680C46C3F30223E6
:10566000C3F10705042D00D90425191D072901D20E
:10567000002300E0DB1E012606FA05F1491E214049
:1056800099409E40761E16403143F0BC01F061BC4B
:105690000CED00E0064900F0070208684FF6FF0332
:1056A000184040EA0220034A104308607047000097
:1056B0000CED00E00000FA05032101600A490A68C8
:1056C000C2F3881242600968C1F302718160064921
:1056D0007C390968044A01F4F811143A126802F49A
:1056E00040720A43C260704784380240014600207D
:1056F000012907D11049096811F4000103D00129DB
:1057000000D10E4870470C48001F0168006849022C
:1057100000F03F0001D50A4900E00A49064AB1FB02
:10572000F0F07C321168C1F3881141431068C0F376
:105730000270B1FBF0F07047083802400080BB00F7
:1057400000127A000024F4002DE9F84305460068B1
:105750004FF00109C1074FF0000601D1400727D5DE
:10576000DFF80C81C8F86860FFF7D6F90746414CAE
:1057700005E000BFFFF7D0F9C01B022857D820680A
:105780000001F7D468688101287A41EA007039493C
:1057900084310860C8F86890FFF7BEF9074604E056
:1057A000FFF7BAF9C01B022841D820680001F7D5DD
:1057B0002878800752D52F484030016841F0805149
:1057C000016000682C4C00F080500090206840F48C
:1057D00080702060FFF7A0F9074604E0FFF79CF90E
:1057E000C01B022823D82068C005F7D5214C70348F
:1057F000206810F4407020D0A98901F440718142E2
:105800001BD020681D4920F44070C1F800900E6044
:1058100020602068C00710D0FFF77EF9064641F2ED
:10582000883707E0FFF778F9801BB84202D90320D8
:10583000BDE8F88320688007F4D5E9680D48C1F316
:1058400001220830032A0BD0016821F4F81101600D
:105850002068A989C1F30B01084320600020E7E715
:105860000268074B22F4F81219400A430260EFE77E
:10587000000047420038024000700040400E47429E
:10588000FFFCFF0F2DE9F0470E46050065D0DFF85D
:105890001481D8F80000F7B200F00F00B04207D230
:1058A00088F80070D8F8000000F00F00B04254D122
:1058B00028683D4C810712D5400703D5206840F485
:1058C000E05020602878000703D5206840F460404D
:1058D00020602068A96820F0F00008432060287844
:1058E000C0072DD0304968680839012812D0022835
:1058F00013D0032811D00968890700292DDA2168FF
:1059000021F0030101432160FFF706F9814641F2CE
:10591000883A0EE009688903EFE709688901ECE736
:10592000FFF7FAF8A0EB0901514502D90320BDE8C1
:10593000F0872068696800F00C00B0EB810FEFD1B0
:10594000D8F80010404601F00F01B14207D90770A6
:10595000006800F00F00B04201D00120E7E728788E
:10596000400705D52068E96820F4E050084320602E
:105970002878000706D52068296920F4604040EAAD
:10598000C100206000F03EF82168084AC1F303110D
:10599000515CC8400649086006480068FFF714FEDD
:1059A0000020C4E7003C024008380240A823010858
:1059B000740000206C00002001480068704700005F
:1059C000740000200448054900680968044AC1F3CE
:1059D0008221515CC84070477400002008380240A2
:1059E000B82301080448054900680968044AC1F35E
:1059F0004231515CC84070477400002008380240B2
:105A0000B8230108154810B5006810F00C021448BE
:105A100013D04110042A0FD0082A0ED10F4C241F96
:105A20002268236802F03F025B0207D52068C0F3BA
:105A30008810A0FB010106E0084610BD2168C1F3F3
:105A40008811A1FB00010023FAF7BCFB2168C1F318
:105A50000141491C4900B0FBF1F010BD083802407B
:105A60000024F4002DE9F84F04006ED02078DFF810
:105A70003C93C007A9F104054AD009F1040001686C
:105A8000C1F38101012908D00068C0F38100022818
:105A90000AD1D9F80000400206D52868800337D51E
:105AA00060680028E1D033E06068B0F5803F10D036
:105AB000B0F5A02F286810D020F480302860286826
:105AC00020F4802028606068A8B1FFF725F806461A
:105AD0000DE0286840F48030F4E740F4802028602E
